PEP11600PEP116001004202101290120210126  CO00590378  ROJAS DEL VALLE LUIS ALBERTO                                EL CORREGIDOR 874 LA MOLINA             DNI 07943979    PERU        000000002496
PEP11600PEP116001004202101290120210126  CO00590378  ROJAS DEL VALLE LUIS ALBERTO                                EL CORREGIDOR 874 LA MOLINA             DNI 07943979    PERU        000000037058
PEP11600PEP116001004202101290120210126  CO00932377  RI - FONDO 3                                                CALLE CHINCHON 980                      RUC 20510398158 PERU        000000004992
PEP11600PEP116001004202101290120210126  CO00932377  RI - FONDO 3                                                CALLE CHINCHON 980                      RUC 20510398158 PERU        000000002718
PEP11600PEP116001004202101290120210126  CO00932377  RI - FONDO 3                                                CALLE CHINCHON 980                      RUC 20510398158 PERU        000000154402
PEP11600PEP116001004202101290120210126  VE00922894  CRUZ AMPUERO MARIA DEL PILAR                                VELASQUEZ 403 2DO PISO                  DNI 07823402    PERU        000000006861
PEP11600PEP116001004202101290120210126  VE00928474  BBVA MODERADO - S FMIV                                      AV REPUBLICA DE PANAMA 3055             RUC 20377281013 PERU        000000055575
PEP11600PEP116001004202101290120210126  VE00936072  DE LA SOTTA MORALES OSCAR FERNANDO                          CALLE VELASQUEZ 403 2DO PISO            DNI 10007289    PERU        000000030000
PEP11600PEP116001004202101290120210126  VE00944921  BBVA BALANCEADO - S FMIV                                    AV REPUBLICA DE PANAMA 3055 PISO 2      RUC 20515482131 PERU        000000098827
PEP11600PEP116001004202101290120210126  VE01257252  GOMEZ RUIZ MIGUEL ANGEL                                     CAL PIURA 347                           DNI 41103019    PERU        000000002718
PEP11600PEP116001004202101290120210126  VE01265932  PEREA ZABALBEASCOA DIEGO GUILLERMO                          CALLE SANTA ISABEL 258 DPTO. 403        DNI 45112562    PERU        000000004992
PEP11600PEP116001004202101290120210126  VE01267393  MISARI CABRERA RAMIRO ADRIAN                                LOS CIVILES 290 DPTO 301 URB. RIVERA DE DNI 10585736    PERU        000000000197
PEP11600PEP116001004202101290120210126  VE01324238  QUISPE ARROYO JORGE LUIS                                    AV SAN MARTIN MZA F LOTE 13A            DNI 46369459    PERU        000000002496