PEP11600PEP116001004202101050120210104  CO01239933  GOMEZ SANCHEZ SERRANO JUAN CARLOS                           AV. MILITAR 2715                        DNI 40951254    PERU        000000002000
PEP11600PEP116001004202101050120210104  CO01258385  MELERO BLANCO JORGE                                         JACINTO LARA 397  DPTO. 401             CEX 000426957   ESPAÑA      000000009404
PEP11600PEP116001004202101050120210104  CO01258385  MELERO BLANCO JORGE                                         JACINTO LARA 397  DPTO. 401             CEX 000426957   ESPAÑA      000000001000
PEP11600PEP116001004202101050120210104  CO01270005  OLAECHEA VELAZCO RAFAEL ERNESTO                             JUSTO VIGIL 444 URB. ORRANTIA           DNI 43175032    PERU        000000012000
PEP11600PEP116001004202101050120210104  CO01338176  CIRILO FLORES PAUL ANTHONY                                  CALLE LOS LIRIOS MANZANA P LOTE 5 LOS JADNI 47597574    PERU        000000000550
PEP11600PEP116001004202101050120210104  CO01342927  RODRIGUEZ HUAMAN SANDRO ALEXANDER                           MZ M LT 08                              DNI 72487843    PERU        000000000020
PEP11600PEP116001004202101050120210104  CO01345530  REGALADO TAMAYO RAUL                                        JR TOMAS RAMSEY 465                     DNI 10770560    PERU        000000000547
PEP11600PEP116001004202101050120210104  CO01345530  REGALADO TAMAYO RAUL                                        JR TOMAS RAMSEY 465                     DNI 10770560    PERU        000000000010
PEP11600PEP116001004202101050120210104  VE00028069  BEINGOLEA FAJARDO GILBERTO                                  AV. ANDRES SANTA CRUZ 1332 DPTO. 101 MIRDNI 06156902    PERU        000000001000
PEP11600PEP116001004202101050120210104  VE00927102  GARCIA CARHUAS JORGE ALEXANDER                              JR. UCAYALI 175 CERCADO                 DNI 40144136    PERU        000000002000
PEP11600PEP116001004202101050120210104  VE00932584  LARRAIN VIAL CORREDORA DE BOLSA S.A.                        AV. EL BOSQUE NORTE 0177 PISO 3, LAS CONDPO 805370009   CHILE       000000012550
PEP11600PEP116001004202101050120210104  VE01236489  BLANCO BENVENUTTI DE GODOY PATRICIA ANN                     AV. LIBERTADORES N° 273 DPTO. 701       DNI 08261900    PERU        000000000020
PEP11600PEP116001004202101050120210104  VE01236489  BLANCO BENVENUTTI DE GODOY PATRICIA ANN                     AV. LIBERTADORES N° 273 DPTO. 701       DNI 08261900    PERU        000000009404
PEP11600PEP116001004202101050120210104  VE01324395CPARBULU CARRASCO GLADYS CECILIA                              AV CHIRICHIGNO URB SAN EDUARDO          DNI 02658223    PERU        000000000547
PEP11600PEP116001004202101050120210104  VE01344491  RAMIREZ DIAZ JOSE FERNANDO                                  CALLE LIMA 308                          DNI 72686091    PERU        000000000010