PEP11600PEP1160010040120201216000013900000000500000690104COMPRA00794003  VILLAVICENCIO ARANA RICARDO MIGUEL                          000000005000000000000000      
PEP11600PEP1160010040120201216000013900000000500000690104VENTA 00932584  LARRAIN VIAL CORREDORA DE BOLSA S.A.                        000000005000000000000000      
PEP11600PEP1160010040120201216000014000000000090000690104COMPRA00794003  VILLAVICENCIO ARANA RICARDO MIGUEL                          000000000900000000000000MODIF.
PEP11600PEP1160010040120201216000014000000000090000690104VENTA 01292577  GOLDMAN SACHS UK RETIREMENT PLAN                            000000000139000000000000MODIF.
PEP11600PEP1160010040120201216000014000000000090000690104VENTA 01308147  THE SULTANATE OF OMAN MINISTRY OF DEFENCE PENSION           000000000280000000000000MODIF.
PEP11600PEP1160010040120201216000014000000000090000690104VENTA 01315706  KIM PRIVATE PRIME GLOBAL EMERGING EQUITY MASTER INVESTMENT T000000000481000000000000MODIF.
PEP11600PEP1160010040120201216000014100000000410000690029COMPRA00794003  VILLAVICENCIO ARANA RICARDO MIGUEL                          000000004100000000000000      
PEP11600PEP1160010040120201216000014100000000410000690029VENTA 00927102  GARCIA CARHUAS JORGE ALEXANDER                              000000004100000000000000      
PEP11600PEP1160010040120201216000016200000000250000010029COMPRA01332894  DEZA REYNAGA ENRIQUE JAVIER                                 000000002500000000000000      
PEP11600PEP1160010040120201216000016200000000250000010029VENTA 00927102  GARCIA CARHUAS JORGE ALEXANDER                              000000002500000000000000      
PEP11600PEP1160010040120201216000029400000000350000010029COMPRA00942493  PUENTE DJUROVICH MIRKO                                      000000003500000000000000      
PEP11600PEP1160010040120201216000029400000000350000010029VENTA 00927102  GARCIA CARHUAS JORGE ALEXANDER                              000000003500000000000000      
PEP11600PEP1160010040120201216000031200000000990001010029COMPRA01238550  TRADEK S.A. SOCIEDAD AGENTE DE BOLSA                        000000009900000000000000      
PEP11600PEP1160010040120201216000031200000000990001010029VENTA 00927102  GARCIA CARHUAS JORGE ALEXANDER                              000000009900000000000000      
PEP11600PEP1160010040120201216000031300000000376201010104COMPRA01238550  TRADEK S.A. SOCIEDAD AGENTE DE BOLSA                        000000003762000000000000MODIF.
PEP11600PEP1160010040120201216000031300000000376201010104VENTA 00714205  GOLDMAN SACHS EMERGING MARKETS EQUITY FUND                  000000003762000000000000MODIF.
PEP11600PEP1160010040120201216000031400000000150001010019COMPRA01238550  TRADEK S.A. SOCIEDAD AGENTE DE BOLSA                        000000001500000000000000      
PEP11600PEP1160010040120201216000031400000000150001010019VENTA 00028069  BEINGOLEA FAJARDO GILBERTO                                  000000001500000000000000      
PEP11600PEP1160010040120201216000034300000000100001010104COMPRA01238550  TRADEK S.A. SOCIEDAD AGENTE DE BOLSA                        000000001000000000000000MODIF.
PEP11600PEP1160010040120201216000034300000000100001010104VENTA 01308147  THE SULTANATE OF OMAN MINISTRY OF DEFENCE PENSION           000000000246000000000000MODIF.
PEP11600PEP1160010040120201216000034300000000100001010104VENTA 01270178  GUIDESTONE FUNDS EMERGING MARKETS EQUITY FUND               000000000754000000000000MODIF.
PEP11600PEP1160010040120201216000036400000000012801010104COMPRA01238550  TRADEK S.A. SOCIEDAD AGENTE DE BOLSA                        000000000128000000000000MODIF.
PEP11600PEP1160010040120201216000036400000000012801010104VENTA 01292577  GOLDMAN SACHS UK RETIREMENT PLAN                            000000000128000000000000MODIF.
PEP11600PEP1160010040120201216000039800000000002301010104COMPRA01238550  TRADEK S.A. SOCIEDAD AGENTE DE BOLSA                        000000000023000000000000MODIF.
PEP11600PEP1160010040120201216000039800000000002301010104VENTA 01292577  GOLDMAN SACHS UK RETIREMENT PLAN                            000000000023000000000000MODIF.
PEP11600PEP1160010040120201216000042700000002708701010019COMPRA01238550  TRADEK S.A. SOCIEDAD AGENTE DE BOLSA                        000000027087000000000000      
PEP11600PEP1160010040120201216000042700000002708701010019VENTA 00932377  RI - FONDO 3                                                000000027087000000000000      
PEP11600PEP1160010040120201216000042800000012791300190019COMPRA00523476  DE OSMA BERCKEMEYER OSCAR JAVIER                            000000127913000000000000      
PEP11600PEP1160010040120201216000042800000012791300190019VENTA 00932377  RI - FONDO 3                                                000000127913000000000000      
PEP11600PEP1160010040120201216000042900000002708700190104COMPRA00523476  DE OSMA BERCKEMEYER OSCAR JAVIER                            000000027087000000000000MODIF.
PEP11600PEP1160010040120201216000042900000002708700190104VENTA 00714966  GSF-GOLDMAN SACHS EM. MARKETS EQUITY PORTF.                 000000018530000000000000MODIF.
PEP11600PEP1160010040120201216000042900000002708700190104VENTA 00714205  GOLDMAN SACHS EMERGING MARKETS EQUITY FUND                  000000008557000000000000MODIF.
PEP11600PEP1160010040120201216000043200000000291300190104COMPRA00034218  D'ANGELO KRUGER JOSE ALEJANDRO                              000000002913000000000000MODIF.
PEP11600PEP1160010040120201216000043200000000291300190104VENTA 01303769  ERI-BAYERNINVEST-FONDS AKTIEN ASIEN                         000000000523000000000000MODIF.
PEP11600PEP1160010040120201216000043200000000291300190104VENTA 01307196  GOLDMAN SACHS FUNDS-GOLDMAN SACHS EMERGING MARKETS MULTI-ASS000000000060000000000000MODIF.
PEP11600PEP1160010040120201216000043200000000291300190104VENTA 01277791  THE PUBLIC INSTITUTION FOR SOCIAL SECURITY                  000000002330000000000000MODIF.
PEP11600PEP1160010040120201216000043300000000108700190104COMPRA00034218  D'ANGELO KRUGER JOSE ALEJANDRO                              000000001087000000000000MODIF.
PEP11600PEP1160010040120201216000043300000000108700190104VENTA 01270178  GUIDESTONE FUNDS EMERGING MARKETS EQUITY FUND               000000000027000000000000MODIF.
PEP11600PEP1160010040120201216000043300000000108700190104VENTA 01303769  ERI-BAYERNINVEST-FONDS AKTIEN ASIEN                         000000001060000000000000MODIF.
PEP11600PEP1160010040120201216000045200000000291300190104COMPRA00523476  DE OSMA BERCKEMEYER OSCAR JAVIER                            000000002913000000000000MODIF.
PEP11600PEP1160010040120201216000045200000000291300190104VENTA 00714205  GOLDMAN SACHS EMERGING MARKETS EQUITY FUND                  000000000909000000000000MODIF.
PEP11600PEP1160010040120201216000045200000000291300190104VENTA 01277791  THE PUBLIC INSTITUTION FOR SOCIAL SECURITY                  000000002004000000000000MODIF.
PEP11600PEP1160010040120201216000045300000000002500190104COMPRA00523476  DE OSMA BERCKEMEYER OSCAR JAVIER                            000000000025000000000000MODIF.
PEP11600PEP1160010040120201216000045300000000002500190104VENTA 01292577  GOLDMAN SACHS UK RETIREMENT PLAN                            000000000025000000000000MODIF.
PEP11600PEP1160010040120201216000050300000000000200190104COMPRA00523476  DE OSMA BERCKEMEYER OSCAR JAVIER                            000000000002000000000000MODIF.
PEP11600PEP1160010040120201216000050300000000000200190104VENTA 01292577  GOLDMAN SACHS UK RETIREMENT PLAN                            000000000002000000000000MODIF.
PEP11600PEP1160010040120201216000050900000006017703400340COMPRA01229008  ISHARES MSCI ALL PERU CAPPED INDEX FUND                     000000060177000000000000
PEP11600PEP1160010040120201216000050900000006017703400340VENTA 01313813  BOFA SECURITIES INC                                         000000060177000000000000
PEP11600PEP1160010040120201216000009000000000003900690069COMPRA01342927  RODRIGUEZ HUAMAN SANDRO ALEXANDER                           000000000039000000000000      
PEP11600PEP1160010040120201216000009000000000003900690069VENTA 00811146  SOTA NADAL VDA DE PAREDES CARMEN                            000000000039000000000000      
PEP11600PEP1160010040120201216000009800000000083900910069COMPRA00920858  CHAVEZ GAMBOA ROBERTO CARLO                                 000000000839000000000000      
PEP11600PEP1160010040120201216000009800000000083900910069VENTA 00811146  SOTA NADAL VDA DE PAREDES CARMEN                            000000000839000000000000      
PEP11600PEP1160010040120201216000009900000000015800910104COMPRA00920858  CHAVEZ GAMBOA ROBERTO CARLO                                 000000000158000000000000MODIF.
PEP11600PEP1160010040120201216000009900000000015800910104VENTA 01292577  GOLDMAN SACHS UK RETIREMENT PLAN                            000000000113000000000000MODIF.
PEP11600PEP1160010040120201216000009900000000015800910104VENTA 01315706  KIM PRIVATE PRIME GLOBAL EMERGING EQUITY MASTER INVESTMENT T000000000045000000000000MODIF.
PEP11600PEP1160010040120201216000012600000000003000910104COMPRA00920858  CHAVEZ GAMBOA ROBERTO CARLO                                 000000000030000000000000MODIF.
PEP11600PEP1160010040120201216000012600000000003000910104VENTA 01292577  GOLDMAN SACHS UK RETIREMENT PLAN                            000000000030000000000000MODIF.
PEP11600PEP1160010040120201216000012700000000768500910094COMPRA00920858  CHAVEZ GAMBOA ROBERTO CARLO                                 000000007685000000000000      
PEP11600PEP1160010040120201216000012700000000768500910094VENTA 00932377  RI - FONDO 3                                                000000007685000000000000      
PEP11600PEP1160010040120201216000015400000000731500010094COMPRA00192136  GOMEZ LAZARTE JAVIER ERNESTO                                000000007315000000000000      
PEP11600PEP1160010040120201216000015400000000731500010094VENTA 00932377  RI - FONDO 3                                                000000007315000000000000      
PEP11600PEP1160010040120201216000015500000000061600010104COMPRA00192136  GOMEZ LAZARTE JAVIER ERNESTO                                000000000616000000000000MODIF.
PEP11600PEP1160010040120201216000015500000000061600010104VENTA 01270178  GUIDESTONE FUNDS EMERGING MARKETS EQUITY FUND               000000000208000000000000MODIF.
PEP11600PEP1160010040120201216000015500000000061600010104VENTA 01315706  KIM PRIVATE PRIME GLOBAL EMERGING EQUITY MASTER INVESTMENT T000000000171000000000000MODIF.
PEP11600PEP1160010040120201216000015500000000061600010104VENTA 01308147  THE SULTANATE OF OMAN MINISTRY OF DEFENCE PENSION           000000000237000000000000MODIF.
PEP11600PEP1160010040120201216000015700000000220000010104COMPRA00192136  GOMEZ LAZARTE JAVIER ERNESTO                                000000002200000000000000MODIF.
PEP11600PEP1160010040120201216000015700000000220000010104VENTA 00714205  GOLDMAN SACHS EMERGING MARKETS EQUITY FUND                  000000000467000000000000MODIF.
PEP11600PEP1160010040120201216000015700000000220000010104VENTA 01277791  THE PUBLIC INSTITUTION FOR SOCIAL SECURITY                  000000001706000000000000MODIF.
PEP11600PEP1160010040120201216000015700000000220000010104VENTA 01307196  GOLDMAN SACHS FUNDS-GOLDMAN SACHS EMERGING MARKETS MULTI-ASS000000000027000000000000MODIF.
PEP11600PEP1160010040120201216000016700000001126900010094COMPRA00192136  GOMEZ LAZARTE JAVIER ERNESTO                                000000011269000000000000      
PEP11600PEP1160010040120201216000016700000001126900010094VENTA 00932377  RI - FONDO 3                                                000000011269000000000000      
PEP11600PEP1160010040120201216000017100000000873100190094COMPRA00411594  GARCIA CALDERON PORTUGAL MILAGROS TERESA                    000000008731000000000000      
PEP11600PEP1160010040120201216000017100000000873100190094VENTA 00932377  RI - FONDO 3                                                000000008731000000000000      
PEP11600PEP1160010040120201216000017200000000399500190104COMPRA00411594  GARCIA CALDERON PORTUGAL MILAGROS TERESA                    000000003995000000000000MODIF.
PEP11600PEP1160010040120201216000017200000000399500190104VENTA 00714205  GOLDMAN SACHS EMERGING MARKETS EQUITY FUND                  000000002067000000000000MODIF.
PEP11600PEP1160010040120201216000017200000000399500190104VENTA 00714966  GSF-GOLDMAN SACHS EM. MARKETS EQUITY PORTF.                 000000001928000000000000MODIF.
PEP11600PEP1160010040120201216000017400000001500000190094COMPRA00411594  GARCIA CALDERON PORTUGAL MILAGROS TERESA                    000000015000000000000000      
PEP11600PEP1160010040120201216000017400000001500000190094VENTA 00932377  RI - FONDO 3                                                000000015000000000000000      
PEP11600PEP1160010040120201216000017500000000317400190094COMPRA00411594  GARCIA CALDERON PORTUGAL MILAGROS TERESA                    000000003174000000000000      
PEP11600PEP1160010040120201216000017500000000317400190094VENTA 00932377  RI - FONDO 3                                                000000003174000000000000      
PEP11600PEP1160010040120201216000034500000001000000010094COMPRA00387756  ANGELES SAAVEDRA MAXIMO MANUEL                              000000010000000000000000      
PEP11600PEP1160010040120201216000034500000001000000010094VENTA 00932377  RI - FONDO 3                                                000000010000000000000000      
PEP11600PEP1160010040120201216000034600000000341900010104COMPRA00387756  ANGELES SAAVEDRA MAXIMO MANUEL                              000000003419000000000000MODIF.
PEP11600PEP1160010040120201216000034600000000341900010104VENTA 00714205  GOLDMAN SACHS EMERGING MARKETS EQUITY FUND                  000000003419000000000000MODIF.
PEP11600PEP1160010040120201216000034700000000182600010094COMPRA00387756  ANGELES SAAVEDRA MAXIMO MANUEL                              000000001826000000000000      
PEP11600PEP1160010040120201216000034700000000182600010094VENTA 00932377  RI - FONDO 3                                                000000001826000000000000      
PEP11600PEP1160010040120201216000035200000000218800010069COMPRA00387756  ANGELES SAAVEDRA MAXIMO MANUEL                              000000002188000000000000      
PEP11600PEP1160010040120201216000035200000000218800010069VENTA 00292761  CHANAME ZAPATA OSCAR MARTIN                                 000000002188000000000000      
PEP11600PEP1160010040120201216000035300000000756700010094COMPRA00387756  ANGELES SAAVEDRA MAXIMO MANUEL                              000000007567000000000000      
PEP11600PEP1160010040120201216000035300000000756700010094VENTA 00932377  RI - FONDO 3                                                000000007567000000000000      
PEP11600PEP1160010040120201216000036500000000087001120094COMPRA01345573  AYLLON RIVERA OMAR RENZO                                    000000000870000000000000      
PEP11600PEP1160010040120201216000036500000000087001120094VENTA 00932377  RI - FONDO 3                                                000000000870000000000000      
PEP11600PEP1160010040120201216000041100000000656301040094COMPRA00932584  LARRAIN VIAL CORREDORA DE BOLSA S.A.                        000000006563000000000000      
PEP11600PEP1160010040120201216000041100000000656301040094VENTA 00932377  RI - FONDO 3                                                000000006563000000000000      
PEP11600PEP1160010040120201216000041200000000641001040104COMPRA00932584  LARRAIN VIAL CORREDORA DE BOLSA S.A.                        000000006410000000000000MODIF.
PEP11600PEP1160010040120201216000041200000000641001040104VENTA 00714966  GSF-GOLDMAN SACHS EM. MARKETS EQUITY PORTF.                 000000006342000000000000MODIF.
PEP11600PEP1160010040120201216000041200000000641001040104VENTA 01300862  GOLDMAN SACHS GLOBAL ABSOLUTE RETURN PORTFOLIO              000000000068000000000000MODIF.
PEP11600PEP1160010040120201216000041600000000110001040104COMPRA00932584  LARRAIN VIAL CORREDORA DE BOLSA S.A.                        000000001100000000000000MODIF.
PEP11600PEP1160010040120201216000041600000000110001040104VENTA 01270178  GUIDESTONE FUNDS EMERGING MARKETS EQUITY FUND               000000000144000000000000MODIF.
PEP11600PEP1160010040120201216000041600000000110001040104VENTA 01277791  THE PUBLIC INSTITUTION FOR SOCIAL SECURITY                  000000000244000000000000MODIF.
PEP11600PEP1160010040120201216000041600000000110001040104VENTA 01303769  ERI-BAYERNINVEST-FONDS AKTIEN ASIEN                         000000000712000000000000MODIF.